:100000000C9442000C946A000C946A000C946A00F0
:100010000C946A000C946A000C946A000C946A00B8
:100020000C946A000C946A000C946A000C946A00A8
:100030000C946A000C946A000C946A000C946A0098
:100040000C9444130C946A000C9443100C94751097
:100050000C946A000C946A000C946A000C946A0078
:100060000C946A000C946A000123456789ABCDEFBC
:10007000FEDCBA9876543210F0E1D2C3A605D70E52
:10008000A510B80511241FBECFEFD8E0DEBFCDBF4D
:1000900016E0A0E0B1E0EAE3FFE202C005900D92B5
:1000A000A230B107D9F727E0A2E0B6E001C01D9267
:1000B000AB37B207E1F710E0C2E8D0E004C0229706
:1000C000FE010E944714CC37D107C9F70E943513AF
:1000D0000C9490170C9400008CE096E00E9445115F
:1000E00082E196E00E94451188E196E00C9445116A
:1000F0008F929F92AF92BF92CF92DF92EF92FF9238
:100100000F931F93CF93DF9368E072E080ED96E04A
:100110000E94341167E272E080ED96E00E94341193
:1001200068E572E080ED96E00E94341165E872E0C7
:1001300080ED96E00E9434116EEA72E080ED96E068
:100140000E9434116FEC72E080ED96E00E94341151
:100150006CEE72E080ED96E00E94341169E073E08D
:1001600080ED96E00E94341164E273E080ED96E049
:100170000E94341162E473E080ED96E00E94341135
:100180006FE573E080ED96E00E943411C0E0D0E0AE
:1001900000E010E0E12CF12C8BE2882E9EE2B92EDB
:1001A0002EE2922E3FE0A32E10920B0610920A062A
:1001B000109209061092080642E151E020E030E07A
:1001C00080E090E0009731F42115310519F4909208
:1001D000120104C0FA01E80FF91F808201968F30E6
:1001E000910581F72F5F3F4F415F5F4F2F30310502
:1001F00039F7C12CD12C40E1C41647E2D4060CF0EB
:10020000B9C18091F5019091F601E816F90641F423
:100210008091F3019091F4010817190709F4B0C116
:10022000C930D1050CF446C04EE050E060E070E00B
:100230008EE196E00E94480BEB01219644E050E0ED
:1002400060E070E08EE196E00E94480B6115710558
:100250008105910579F0613071058105910541F5C0
:10026000AC9E9001AD9E300D11242E5E3E4F80E07D
:1002700090E016C0AC9E9001AD9E300D11242E5E14
:100280003E4F8EE090E0F901E80FF91F40814E32B9
:1002900069F00197C0F70CC001968F30910541F0CD
:1002A000F901E80FF91F40814E32B1F78E017C0150
:1002B000C0E0D0E044E050E060E070E08EE196E025
:1002C0000E94480B613071058105910509F45EC0FB
:1002D0002CF4672B682B692B71F03EC162307105DD
:1002E0008105910509F4A0C0633071058105910570
:1002F00009F4E7C031C10115110509F428C1023024
:1003000011057CF0C8010297A89EF001A99EF00D8E
:100310001124EE0DFF1DEE5EFE4F80818E3209F43A
:1003200016C1C70101970D9788F4C8010197A89ECF
:10033000F001A99EF00D1124EE5EFE4FEE0DFF1DA3
:1003400081818E3209F403C1319719C0E114F1049F
:1003500059F4C8010197A89EF001A99EF00D11243F
:10036000EE5EFE4F81810CC06EE0E616F10459F49A
:10037000A09EF001A19EF00D1124EE5EFE4F808143
:100380008E3209F4E4C001501109E6C08EE0E8168F
:10039000F10409F4DCC04DE0E416F1046CF4A09E15
:1003A000F001A19EF00D1124EE5EFE4FEE0DFF1D3B
:1003B00082818E3209F4CBC09801215031092D3051
:1003C0003105E0F4C7010196A8014F5F5F4FA49E7D
:1003D000F001A59EF00D1124E80FF91FEE5EFE4F0F
:1003E00040814E3209F4B3C0A29EF001A39EF00DED
:1003F0001124E80FF91FEE5EFE4F0EC00115110526
:1004000029F4F701EE5EFE4F808907C00E3011051A
:1004100039F4F701EA52FE4F80818E3209F497C019
:100420006FEFE61AF60A98C00E30110509F48FC076
:100430000D3011057CF4C8010296A89EF001A99E1A
:10044000F00D1124EE0DFF1DEE5EFE4F80818E3209
:1004500009F47DC0C70101970D9788F4C801019682
:10046000A89EF001A99EF00D1124EE5EFE4FEE0D48
:10047000FF1D81818E3209F46AC031971BC0E114DF
:10048000F10459F4C8010196A89EF001A99EF00D4F
:100490001124EE5EFE4F81810EC08EE0E816F1045D
:1004A00069F4C8010296A89EF001A99EF00D1124DE
:1004B000EE5EFE4F80818E3209F449C00F5F1F4F00
:1004C0004BC0E114F10409F442C041E0E416F10428
:1004D00061F0A09EF001A19EF00D1124EE0DFF1D14
:1004E000E05FFE4F80818E3291F1980121503109F9
:1004F0002D303105D8F4C7010197A8014F5F5F4F38
:10050000A49EF001A59EF00D1124E80FF91FEE5EE8
:10051000FE4F40814E32D9F0A29EF001A39EF00D15
:100520001124E80FF91FEE5EFE4F0EC001151105F4
:1005300029F4F701EE5EFE4F868507C00E301105E7
:1005400041F4F701EC52FE4F80818E3211F4219676
:100550000DC061E0E61AF108A09EF001A19EF00D29
:100560001124EE0DFF1DEE5EFE4FB0828FEFC81A14
:10057000D80A41CE60E1C61667E2D60609F414CE69
:1005800082E391E000E010E0FC01E12CF12CA801F5
:100590004F5F5F4F98012E5F3F4FDF0190976C9147
:1005A0006B3209F04BC011966C916B3209F046C06A
:1005B00011966C916B3209F041C01D966C916B32B3
:1005C000E9F511966C916B32C9F511966C916B320D
:1005D000A9F51D966C916B3289F511966C916B3271
:1005E00069F560816B3251F590976C916E3259F4D8
:1005F000A09EF001A19EF00D1124EE0DFF1DEE5EF8
:10060000FE4FB08257CEDF0152976C916E3231F4BB
:10061000A49EF001A59EF00D11240AC0DF011397DE
:100620006C916E3259F4A29EF001A39EF00D11243C
:10063000EE0DFF1DEE5EFE4F60833CCE6FEFE61ABF
:10064000F60A31966DE0E616F10409F0A6CF0F5FC9
:100650001F4F0F960D30110509F096CFDF91CF9106
:100660001F910F91FF90EF90DF90CF90BF90AF90D0
:100670009F908F9008954F925F926F927F928F928A
:100680009F92AF92BF92CF92DF92EF92FF920F9321
:100690001F93CF93DF9320910A0630910B06809130
:1006A0000806909109062115310531F02E303105EB
:1006B00029F42DE030E002C021E030E0390141E0D2
:1006C000641A7108009731F08E30910529F48DE09D
:1006D00090E002C081E090E0EC0121974FE0489F5C
:1006E0007001499FF00C112400E010E06C014FEF05
:1006F000C41AD40AC7018D5F9E4F7C0159019FEF38
:10070000A91AB90ACC16DD06ECF14701800E911E3C
:100710002301A414B50464F180910A0690910B069C
:100720004816590649F48091080690910906C817A1
:10073000D90711F46FE414C08091F5019091F6018E
:100740004816590649F48091F3019091F401C817B5
:10075000D90711F468E504C0F401E40DF51D6081CA
:1007600080ED96E00E9436114FEF441A540AD1CF23
:1007700065E272E080ED96E00E9434112196015FFF
:100780001F4FC0CF6CE773E080ED96E00E943411FC
:1007900065E272E080ED96E0DF91CF911F910F91BD
:1007A000FF90EF90DF90CF90BF90AF909F908F9091
:1007B0007F906F905F904F900C9434110E9478005E
:1007C0000C943B03AF92BF92CF92DF92EF92FF92D5
:1007D0000F931F93CF93DF93CDB7DEB768970FB614
:1007E000F894DEBF0FBECDBF80E00E94D5130E94FB
:1007F0003D1166E272E0CE0143960E94B311A12C36
:10080000B12C00E010E042E050E060E070E08EE1EA
:1008100096E00E94480B611571058105910539F03C
:10082000613071058105910509F48CC0E1C04AE091
:1008300050E060E070E08EE196E00E94480B6B01B2
:100840007C014AE050E060E070E08EE196E00E94BA
:10085000480B0130110529F15CF4012B09F040C06F
:100860006C9D90016D9D300D7C9D300D112434C028
:100870000230110521F10330110591F52091060692
:10088000309107062C9DA0012D9D500D3C9D500DD3
:100890001124469F9001479F300D569F300D112423
:1008A0001BC06C9DA0016D9D500D7C9D500D1124B1
:1008B0002091060630910706240F351F0DC06C9D50
:1008C000A0016D9D500D7C9D500D112420910606B8
:1008D00030910706241B350B30930706209306063C
:1008E0004AE0CE0101960E9446124AE0B601CE01CE
:1008F0000D960E944612BE016D5E7F4FCE01079697
:100900000E94E011BE01635F7F4FCE0107960E94F7
:10091000B81264E973E00E94CB12BE016F5F7F4F93
:100920000E94B812BC01CE0143960E94C911CE01AB
:1009300007960E944511CE010D960E944511CE01E9
:10094000019654C04AE050E060E070E08EE196E02D
:100950000E94480B01301105D1F03CF4012B41F508
:10096000709307066093060623C002301105B1F0AC
:1009700003301105E9F44091060650910706469FA1
:100980009001479F300D569F300D11240DC02091CE
:10099000060630910706260F371F06C0209106066F
:1009A00030910706261B370B309307062093060667
:1009B0004AE0CE0107960E944612BE016D5E7F4F4F
:1009C000CE0101960E94E011BE01695F7F4FCE010A
:1009D00001960E94B812BC01CE0143960E94C91133
:1009E000CE0101960E944511CE0107960E94451145
:1009F0008FEFA81AB80A83E0A816B10409F440C022
:100A000043E050E060E070E08EE196E00E94480B29
:100A10008B010F5F1F4F0230110589F00330110564
:100A2000C1F00130110509F0EECEBE016D5E7F4FC1
:100A3000CE0101960E94E0116CE873E013C0BE0184
:100A40006D5E7F4FCE0101960E94E01160E973E078
:100A500009C0BE016D5E7F4FCE0101960E94E0117C
:100A600064E973E0CE0101960E94CB12BC01CE0175
:100A700043960E94C911CE0101960E944511C3CE32
:100A800060910606709107064AE0CE0101960E9429
:100A9000461268E973E0CE0107960E94B311BE01C9
:100AA0006D5E7F4FCE0107960E94B8126FE973E02A
:100AB0000E94CB12BE016F5F7F4F0E94B81265E2A9
:100AC00072E00E94CB12BC0180ED96E00E942611DC
:100AD000CE0107960E944511CE0101960E94451154
:100AE000CE0143960E94451168960FB6F894DEBF7A
:100AF0000FBECDBFDF91CF911F910F91FF90EF906F
:100B0000DF90CF90BF90AF90089526E040E052EC88
:100B100061E070E080ED96E00E94C50F63EA73E04B
:100B200080ED96E00E94341165E272E080ED96E07F
:100B30000E9434116AEB73E080ED96E00E9434115C
:100B400065E272E080ED96E00C94341166E272E0AA
:100B500088E196E00E94B31166E272E082E196E0DD
:100B60000E94B31166E272E08CE096E00C94B3113F
:100B70000C946C00DF92EF92FF920F931F93CF9330
:100B8000DF93CDB7DEB72C970FB6F894DEBF0FBE5C
:100B9000CDBF80ED96E00E94E20E892B09F4BAC029
:100BA00080ED96E00E94FB0E8A3009F0AEC068ED41
:100BB00073E0CE0101960E94B31162E176E0CE01AE
:100BC00001960E94B81265E272E00E94CB12BC014D
:100BD00080ED96E00E942611CE0101960E944511FB
:100BE00065E272E080ED96E00E9434118FE196E0BC
:100BF0000E941C0C62E176E08FE196E00E942611D3
:100C00008FE196E00E94B50E7C0166E272E0CE01B3
:100C100007960E94B3118701E12CF12CF801619134
:100C20008F0140E1CE0101960E941912BE016F5F53
:100C30007F4FCE0107960E949E12CE0101960E9420
:100C40004511FFEFEF1AFF0A84E1E816F10431F7CE
:100C50006CEE73E0CE0107960E94E512882309F43A
:100C600043C04FEFE42E41E0F42E00E010E0F70126
:100C7000D1907F01B80188E196E00E940413FC0145
:100C80006081772767FD70956D2540E1CE01019663
:100C90000E944612BE016F5F7F4F8CE096E00E947B
:100CA0009E12CE0101960E9445110F5F1F4F083022
:100CB0001105E9F664E174E0CE0101960E94B311DA
:100CC0006CE076E0CE0101960E94B81265E272E017
:100CD0000E94CB12BC0180ED96E00E942611CE014D
:100CE00001960E94451106C065E274E080ED96E031
:100CF0000E94341169E374E080ED96E00E943411A3
:100D0000CE0107960E94451105C0682F82E196E04A
:100D10000E94A5122C960FB6F894DEBF0FBECDBF71
:100D2000DF91CF911F910F91FF90EF90DF90089589
:100D3000DF92EF92FF920F931F93CF93DF93CDB784
:100D4000DEB72C970FB6F894DEBF0FBECDBF80ED97
:100D500096E00E94E20E892B09F4DFC180ED96E057
:100D60000E94FB0E8A3009F0D3C160E070E082E19E
:100D700096E00E942713182F66E272E082E196E067
:100D80000E94E911612FCE0107960E94011267E4CB
:100D900074E0CE0101960E94B311BE01695F7F4FDE
:100DA000CE0101960E94B81264E574E00E94CB1255
:100DB000BC0180ED96E00E942611CE0101960E94B2
:100DC0004511CE0107960E94451165E272E080ED63
:100DD00096E00E943411143609F422C124F411362D
:100DE00009F4C0C09AC1133709F45EC0173709F07F
:100DF00094C1209108063091090680910A069091CD
:100E00000B062115310599F0215031094FE0429F21
:100E1000F001439FF00D1124E80FF91FEE5EFE4F25
:100E200040814B3221F0309309062093080620912F
:100E3000F5013091F6018217930709F047C0209120
:100E40000806309109068091F3019091F40128176A
:100E50003907E1F5E7EFEE2EE1E0FE2E00E010E0CD
:100E6000F701D1907F01B80188E196E00E94041358
:100E7000FC016081772767FD70956D2540E1CE010B
:100E800001960E944612BE016F5F7F4F8CE096E094
:100E90000E949E12CE0101960E9445110F5F1F4FC6
:100EA00008301105E9F61AC12091080630910906AB
:100EB00080910A0690910B062E30310551F4209155
:100EC000F5013091F60182179307B9F00E943B03B8
:100ED00024C12F5F3F4F4FE0429FF001439FF00D31
:100EE0001124E80FF91FEE5EFE4F40814B3239F3BB
:100EF0003093090620930806E2CF2091080630912E
:100F000009068091F3019091F40128173907F1F651
:100F100077EFE72E71E0F72E00E010E0F701D190B7
:100F20007F01B80188E196E00E940413FC01608112
:100F3000772767FD70956D2540E1CE0101960E94EF
:100F40004612BE016F5F7F4F8CE096E00E949E12BA
:100F5000CE0101960E9445110F5F1F4F0830110509
:100F6000E9F6BCC080910A0690910B060097B1F09B
:100F7000019720910806309109064FE0429FF00149
:100F8000439FF00D1124E80FF91FEE5EFE4F208104
:100F90002B3221F090930B0680930A0620910A06CB
:100FA00030910B068091F5019091F60128173907D1
:100FB00009F08CCF20910806309109068091F30149
:100FC0009091F4012817390709F080CF67EFE62EDA
:100FD00061E0F62E00E010E0F701D1907F01B8014A
:100FE00088E196E00E940413FC016081772767FD89
:100FF00070956D2540E1CE0101960E944612BE011A
:101000006F5F7F4F8CE096E00E949E12CE010196AA
:101010000E9445110F5F1F4F08301105E9F65EC0B1
:1010200080910A0690910B068E309105B1F00196E1
:1010300020910806309109064FE0429FF001439F3E
:10104000F00D1124E80FF91FEE5EFE4F20812B32C8
:1010500021F090930B0680930A0620910A063091A6
:101060000B068091F5019091F6012817390709F0D8
:101070002DCF20910806309109068091F3019091BF
:10108000F4012817390709F021CF57EFE52E51E079
:10109000F52E00E010E0F701D1907F01B80188E162
:1010A00096E00E940413FC016081772767FD70952C
:1010B0006D2540E1CE0101960E944612BE016F5F90
:1010C0007F4F8CE096E00E949E12CE0101960E9416
:1010D00045110F5F1F4F08301105E9F664E174E018
:1010E000CE0101960E94B3116CE076E0CE0101962C
:1010F0000E94B81265E272E00E94CB12BC0180ED42
:1011000096E00E942611CE0101960E94451105C06D
:10111000682F82E196E00E94A5122C960FB6F894F3
:10112000DEBF0FBECDBFDF91CF911F910F91FF901A
:10113000EF90DF900895DF92EF92FF920F931F934D
:10114000CF93DF9300D000D000D0CDB7DEB780EDD5
:1011500096E00E94E20E892B09F48EC080ED96E0A5
:101160000E94FB0E8A3009F082C068ED73E0CE0168
:1011700001960E94B31162E176E0CE0101960E94D1
:10118000B81265E272E00E94CB12BC0180ED96E0DD
:101190000E942611CE0101960E94451165E272E07F
:1011A00080ED96E00E94341182E196E00E942913BE
:1011B00020910606309107068901222717FD209508
:1011C000322F601771078207930709F043C0FAE0D6
:1011D000EF2EF1E0FF2E00E010E0F701D1907F014B
:1011E000B80188E196E00E940413FC016081772732
:1011F00067FD70956D2540E1CE0101960E94461273
:10120000BE016F5F7F4F8CE096E00E949E12CE0180
:1012100001960E9445110F5F1F4F08301105E9F636
:1012200064E174E0CE0101960E94B3116CE076E0B7
:10123000CE0101960E94B81265E272E00E94CB12C4
:10124000BC0180ED96E00E942611CE0101960E941D
:10125000451106C065E274E080ED96E00E9434110D
:1012600069E374E080ED96E00E94341105C0682FB8
:1012700082E196E00E94A51226960FB6F894DEBF92
:101280000FBECDBFDF91CF911F910F91FF90EF90D7
:10129000DF9008950F931F93CF93DF9300D000D07A
:1012A00000D0CDB7DEB78091040690910506853653
:1012B000910509F4F5C064F58130910509F47AC00F
:1012C00024F4892B09F443C060C18230910509F4EC
:1012D00092C08436910509F058C16CE075E080ED4C
:1012E00096E00E94341162E275E080ED96E00E9483
:1012F000341169E675E080ED96E00E94341165E2F4
:1013000072E080ED96E00E94341188EE93E036C1E1
:10131000893E23E0920709F4F7C05CF48636910514
:1013200009F4D5C0883E934009F02FC10E94BA0548
:101330002CC18A3E23E0920709F4FFC08F30974208
:1013400009F023C180ED96E00E9427101EC180EDB8
:1013500096E00E94E20E892B09F417C180ED96E019
:101360000E94FB0E8A3011F567E574E0CE0101960C
:101370000E94B31168E176E0CE0101960E94B81296
:1013800065E272E00E94CB12BC0180ED96E00E9403
:101390002611CE0101960E94451165E272E080EDB2
:1013A00096E00E94341181E090E0E8C0682F88E167
:1013B00096E073C06FE674E080ED96E00E94341111
:1013C00060E874E080ED96E00E94341160E974E01A
:1013D00080ED96E00E94341166EA74E080ED96E0BC
:1013E0000E94341165E272E080ED96E00E943411B3
:1013F00082E090E0C3C080ED96E00E94E20E892B6F
:1014000009F4C3C080ED96E00E94FB0E8A3009F01B
:1014100041C060E070E082E196E00E942713182F3F
:1014200066E272E082E196E00E94E911103379F4FD
:1014300060EC74E080ED96E00E94341165E272E0A9
:1014400080ED96E00E94341184E690E097C011335D
:1014500079F468ED74E080ED96E00E94341165E265
:1014600072E080ED96E00E94341185E690E086C03F
:10147000123309F08AC06FEE74E080ED96E00E94AE
:10148000341165E272E080ED96E00E94341186E648
:1014900090E074C0682F82E196E00E94A51275C0AA
:1014A00063E875E080ED96E00E94341165E272E039
:1014B00080ED96E00E9434110E94DE030E948E139C
:1014C000709303066093020689EE93E057C068E9C3
:1014D00075E080ED96E00E9434110E94E2030E94C4
:1014E0008E13709303066093020669E675E080ED43
:1014F00096E00E94341165E272E080ED96E00E9471
:1015000034118AEE93E03AC00E948E1300910206D5
:1015100010910306222717FD2095322F601B710BB7
:10152000820B930B693273428105910518F063EBCE
:1015300075E018C00E94980628C00E948E13009182
:10154000020610910306222717FD2095322F601BFB
:10155000710B820B930B613D77408105910598F0EB
:101560006EEC75E080ED96E00E94341169E374E062
:1015700080ED96E00E9434118FE097E2909305068B
:101580008093040602C00E949B0826960FB6F8942A
:10159000DEBF0FBECDBFDF91CF911F910F91089598
:1015A000CF93DF931F92CDB7DEB750917C0040916F
:1015B0007A0030917B0028B197B180E480937C0061
:1015C00084E880937A0010927B004098389A38988B
:1015D000419A80917A00806480937A0061E08091E2
:1015E0007A0086FF04C088B1862788B9F8CF809139
:1015F000780060917900698350937C0040937A0071
:1016000030937B0028B997B9817090E00F90DF91FB
:10161000CF9108950F931F93CF93DF93EC01CE01E9
:101620000E94D00A8C01CE010E94D00A880F991F17
:10163000802B912B8130910529F0029781F781E071
:1016400090E002C080E090E0DF91CF911F910F9178
:1016500008950F931F93CF93DF93EC01CE010E9467
:101660000A0B8C01CE010E940A0B880F991F802B58
:10167000912B8130910529F0029781F781E090E06C
:1016800002C080E090E0DF91CF911F910F9108950B
:101690004F925F926F927F928F929F92AF92BF9282
:1016A000CF92DF92EF92FF920F931F93CF93DF932E
:1016B00000D000D0CDB7DEB78C01411551056105D2
:1016C000710509F49EC0DB01CA010197A109B109A6
:1016D0006C017D01C422D522E622F722CD28CE2836
:1016E000CF2809F46EC06C017D01F594E794D7947E
:1016F000C794C82AD92AEA2AFB2AD701C60122E0C0
:10170000B595A795979587952A95D1F78C299D2909
:10171000AE29BF296C017D0134E0F594E794D7949C
:10172000C7943A95D1F7C82AD92AEA2AFB2ABB27B7
:10173000F7FCBA95AF2D9E2D8D2D8C299D29AE29B4
:10174000BF294D01BB2497FCB094AB2C882A992A61
:10175000AA2ABB2A8FEF881A980AA80AB80AB59451
:10176000A7949794879424013501C12CD12C76013C
:10177000C80149835A836B837C830E94290B49816A
:101780005A816B817C81892B21F0C428D528E628D9
:10179000F728C416D506E606F7062CF47594679468
:1017A0005794479405C024013501C12CD12C7601F2
:1017B0004114510461047104D9F63C2D2D2DC7014B
:1017C00024C06A017B01F594E794D794C794812CD7
:1017D000912C5401C114D104E104F10471F0C80149
:1017E0000E94290B892B21F08C289D28AE28BF2828
:1017F000F594E794D794C794EDCF382D292DC501E2
:1018000004C030E020E080E090E0632F722F0F9062
:101810000F900F900F90DF91CF911F910F91FF903C
:10182000EF90DF90CF90BF90AF909F908F907F9080
:101830006F905F904F900895CF93DF93EC0144E158
:1018400050E068E670E08B5B9F4F0E94CF16FE0170
:10185000E75AFF4F1082118212821382CC5BDF4F56
:101860001882DF91CF9108952F923F924F925F920D
:101870006F927F928F929F92AF92BF92CF92DF92A0
:10188000EF92FF920F931F93CF93DF93CDB7DEB705
:10189000A0970FB6F894DEBF0FBECDBF9E8F8D8F81
:1018A0009C012B5B3F4FD9014D915D916D917C91D6
:1018B0004D835E836F8378872C5F3F4FD9014D91B5
:1018C0005D916D917C9149875A876B877C872C5FEE
:1018D0003F4FD9014D915D916D917C914D875E8710
:1018E0006F87788B2C5F3F4FD9014D915D916D9142
:1018F0007C91498B5A8B6B8B7C8B2C5F3F4FD90132
:101900004D915D916D917C914D8B5E8B6F8B788F3E
:10191000498F5A8F6B8F7C8F09891A892B893C8953
:10192000CD84DE84EF84F88889849A84AB84BC8477
:101930004D815E816F81788549835A836B837C8377
:10194000212C312C422D403198F4D901C8018C252D
:101950009D25AE25BF2588219921AA21BB2180275D
:101960009127A227B32787569648AD47B54A8FC01F
:10197000822D8F706D8D7E8D54E0859F600D711D61
:101980001124D1011D96AF70BB271196AA0FBB1F62
:10199000AA0FBB1F8D8D9E8DA80FB91FF101389620
:1019A000EF70FF273196EE0FFF1FEE0FFF1FE80FBE
:1019B000F91F8D919D910D90BC91A02D408051807B
:1019C0006280738084259525A625B725FB01448078
:1019D00055806680778084259525A625B725F10159
:1019E0003296EF70FF273196EE0FFF1FEE0FFF1FAD
:1019F0006D8C7E8CE60DF71D408051806280738077
:101A000084259525A625B725880F991FAA1FBB1FDA
:101A1000811DFB0184839583A683B783443108F439
:101A200094CFD701C601483268F488259925AA25A4
:101A3000BB2580279127A227B3278F559441A64223
:101A4000B14925C04C33B8F488299929AA29BB2962
:101A500080239123A223B323260137014820592054
:101A60006A207B2084299529A629B729845293448A
:101A7000A44EB0470CC088259925AA25BB258027F0
:101A80009127A227B3278A529E43AD49B5434F7091
:101A90006D8C7E8C54E0459F600C711C112478A2E3
:101AA0006F8E49815A816B817C81EBE176956795D8
:101AB00057954795EA95D1F749805A806B807C808D
:101AC000F5E0440C551C661C771CFA95D1F74429A7
:101AD000552966297729EF8DF8A1448055806680C5
:101AE0007780440D551D661D771D480F591F6A1FCD
:101AF0007B1F898D9A8DAB8DBC8D480F591F6A1F36
:101B00007B1FD501C401E2E0B695A795979587950F
:101B1000EA95D1F7FEE1880C991CAA1CBB1CFA952A
:101B2000D1F7882A992AAA2ABB2A9FEF291A390AAB
:101B3000A0E52A16310489F0098F1A8F2B8F3C8F6C
:101B4000970186017501640189809A80AB80BC8011
:101B500049835A836B837C83F5CEED8DFE8DEB5BE1
:101B6000FF4F8D819E81AF81B885480F591F6A1F35
:101B70007B1F40835183628373836D8C7E8C99E4D9
:101B8000690E711C89819A81AB81BC8149855A8516
:101B90006B857C85840F951FA61FB71FF30180837B
:101BA0009183A283B383ED8DFE8DE35BFF4F4D8563
:101BB0005E856F857889840E951EA61EB71E80826D
:101BC0009182A282B382ED8DFE8DEF5AFF4F69891B
:101BD0007A898B899C89C60ED71EE81EF91EC082A1
:101BE000D182E282F3824D8D5E8D4B5A5F4F8D899B
:101BF0009E89AF89B88D080F191F2A1F3B1FDA0174
:101C00000D931D932D933C931397A0960FB6F894C4
:101C1000DEBF0FBECDBFDF91CF911F910F91FF901F
:101C2000EF90DF90CF90BF90AF909F908F907F907C
:101C30006F905F904F903F902F900895CF93DF93D8
:101C4000EC01CC5BDF4F388123E02327FC01E20F5E
:101C5000F11D648321E0230F2883203419F40E94AE
:101C6000340C1882DF91CF910895262FFC01E75A9A
:101C7000FF4F40815181628173814F5F5F4F6F4F92
:101C80007F4F4083518362837383622F0E941E0EB5
:101C900081E090E008950F931F93CF93DF93EC01C1
:101CA00060E80E941E0E8E010C5B1F4FF8018081C0
:101CB00060E0883321F0CE010E941E0EF7CFCE01E6
:101CC0000E941E0E60E0CE010E941E0E60E0CE015A
:101CD0000E941E0E8E01075A1F4FF801608171810C
:101CE00082819381EDE19695879577956795EA9541
:101CF000D1F7CE010E941E0EF801608171818281B0
:101D00009381F5E19695879577956795FA95D1F743
:101D1000CE010E941E0EF801608171818281938143
:101D2000ADE09695879577956795AA95D1F7CE0101
:101D30000E941E0EF8016081718182819381B5E05D
:101D40009695879577956795BA95D1F7CE010E94BC
:101D50001E0EF8016081660F660F660FCE01DF91DF
:101D6000CF911F910F910C941E0ECF93DF93EC0136
:101D70000E944B0EAE0125E030E0FA01EB5BFF4F15
:101D800060817181828193810E94331460837183A9
:101D900082839383215031094C5F5F4F21153105B8
:101DA00061F7CE018B5B9F4FDF91CF910895109229
:101DB0002206109221068DEE95E0909320068093E6
:101DC0001F060895FC01818D228D90E0805C9F4F5D
:101DD000821B91098F7399270895FC01918D828D43
:101DE000981731F0828DE80FF11D858D90E00895F0
:101DF0008FEF9FEF0895FC01918D828D981761F010
:101E0000828DDF01A80FB11D5D968C91928D9F5F31
:101E10009F73928F90E008958FEF9FEF08958BE965
:101E200090E1892B49F080E090E0892B29F00E9415
:101E30009B1081110C9400000895FC01848DDF013A
:101E4000A80FB11DA35ABF4F2C91848D90E001962D
:101E50008F739927848FA689B7892C93A089B1891C
:101E60008C9180648C93938D848D981306C0028826
:101E7000F389E02D80818F7D80830895CF93DF9358
:101E8000EC01888D8823C9F0EA89FB89808185FD72
:101E900005C0A889B9898C9186FD0FC00FB607FCD3
:101EA000F5CF808185FFF2CFA889B9898C9185FF14
:101EB000EDCFCE010E941D0FE7CFDF91CF910895A6
:101EC000CF92DF92FF920F931F93CF93DF931F92D6
:101ED000CDB7DEB76C01DC015B969C915B975C969D
:101EE0008C915C97981307C05096ED91FC91519797
:101EF000808185FD32C0F601038D10E00F5F1F4F1A
:101F00000F731127F02EF601848DF81211C00FB651
:101F100007FCF9CFD6015096ED91FC915197808145
:101F200085FFF1CFC60169830E941D0F6981EBCF48
:101F3000838DE80FF11DE35AFF4F6083D6015B9656
:101F40000C935B975296ED91FC9153978081806240
:101F5000808381E058968C930DC0D6015696ED9102
:101F6000FC91579760835096ED91FC915197808139
:101F70008064808381E090E00F90DF91CF911F918A
:101F80000F91FF90DF90CF900895BF92CF92DF9294
:101F9000EF92FF92CF93DF93EC016A017B01B22EA7
:101FA000E889F98982E08083411581EE580761054F
:101FB0007105A1F060E079E08DE390E0A701960162
:101FC0000E94F21321503109410951095695479554
:101FD00037952795211580E1380798F0E889F98928
:101FE000108260E874E88EE190E0A70196010E94FB
:101FF000F2132150310941095109569547953795FA
:102000002795EC85FD853083EE85FF852083188E2E
:10201000EC89FD89B082EA89FB89808180618083B7
:10202000EA89FB89808188608083EA89FB898081D5
:1020300080688083EA89FB8980818F7D8083DF913E
:10204000CF91FF90EF90DF90CF90BF900895FC016B
:10205000938D848D9813FCCFA289B3898C918F7E48
:102060008C93A289B3898C91877F8C93A289B38941
:102070008C918F778C93A289B3898C918F7D8C936F
:10208000828D818F08951F920F920FB60F921124A7
:102090002F938F939F93EF93FF93E091E006F0913E
:1020A000E1068081E091E606F091E70682FD12C02C
:1020B00090818091E9068F5F8F732091EA068217E5
:1020C00051F0E091E906F0E0E053F94F958F8093ED
:1020D000E90601C08081FF91EF919F918F912F912F
:1020E0000F900FBE0F901F9018951F920F920FB672
:1020F0000F9211242F933F934F935F936F937F938E
:102100008F939F93AF93BF93EF93FF9380ED96E0F0
:102110000E941D0FFF91EF91BF91AF919F918F9101
:102120007F916F915F914F913F912F910F900FBED3
:102130000F901F90189580ED96E00E94E20E21E02E
:10214000892B09F420E0822F08951092D306109273
:10215000D20688EE93E0A0E0B0E08093D40690939E
:10216000D506A093D606B093D70685EF95E0909359
:10217000D1068093D00685EC90E09093DD068093A5
:10218000DC0684EC90E09093DF068093DE0680EC22
:1021900090E09093E1068093E00681EC90E09093CC
:1021A000E3068093E20682EC90E09093E50680934C
:1021B000E40686EC90E09093E7068093E6061092A2
:1021C000E9061092EA061092EB061092EC060895CA
:1021D000CF92DF92EF92FF920F931F93CF93DF93F3
:1021E0006C017A01EB01E60EF71E00E010E0CE155F
:1021F000DF0561F06991D601ED91FC910190F081CC
:10220000E02DC6010995080F191FF1CFC801DF9114
:10221000CF911F910F91FF90EF90DF90CF90089595
:102220006115710581F0DB010D900020E9F7AD012A
:1022300041505109461B570BDC01ED91FC91028086
:10224000F381E02D099480E090E00895DC01ED91A8
:10225000FC91DB0114964D915C9115976D917C91E9
:102260000280F381E02D09940C941011DC01ED91B2
:10227000FC910190F081E02D0994009729F0BC01B8
:1022800080E090E00C94D5150895FC018081918147
:102290000C94F214CF93DF93EC018881998100971D
:1022A00011F00E94F214198218821D821C821B8276
:1022B0001A82DF91CF9108950F931F93CF93DF93ED
:1022C000EC018B016F5F7F4F888199810E94DE1541
:1022D000009731F0998388831B830A8381E001C0D2
:1022E00080E0DF91CF911F910F910895CF93DF93FD
:1022F000EC0188819981892B29F08A819B8186173D
:10230000970760F4CE010E945C11882341F08C8114
:102310009D81892B19F4E881F981108281E0DF9198
:10232000CF910895EF92FF920F931F93CF93DF9376
:10233000EC017B018A01BA010E947611811104C06F
:10234000CE010E944A1107C01D830C83B70188810A
:1023500099810E94EA16CE01DF91CF911F910F91D2
:10236000FF90EF900895FC01118210821382128277
:10237000158214826115710559F0FB01019000204E
:10238000E9F7AF0141505109461B570B0C949211CC
:102390000895CF93DF93EC01FB018617970761F057
:1023A000608171816115710529F0448155810E9418
:1023B000921102C00E944A11CE01DF91CF9108957F
:1023C000FC011182108213821282158214820C94F5
:1023D000C911CF93DF93EC016115710561F0FB0129
:1023E00001900020E9F7AF0141505109461B570BFE
:1023F0000E94921102C00E944A11CE01DF91CF913A
:102400000895CF93DF9300D0CDB7DEB7FC011182E2
:102410001082138212821582148269831A82BE018D
:102420006F5F7F4F0E94E9110F900F90DF91CF9166
:1024300008950F931F93CF93DF93CDB7DEB72997FE
:102440000FB6F894DEBF0FBECDBF8C01862FF8010A
:1024500011821082138212821582148250E0BE0112
:102460006F5F7F4F90E00E941C17BE016F5F7F4F30
:10247000C8010E94E91129960FB6F894DEBF0FBE7D
:10248000CDBFDF91CF911F910F9108950F931F93AF
:10249000CF93DF93CDB7DEB762970FB6F894DEBF68
:1024A0000FBECDBF8C01CB01F801118210821382C7
:1024B00012821582148250E0BE016F5F7F4F0E942E
:1024C000F116BE016F5F7F4FC8010E94E91162964D
:1024D0000FB6F894DEBF0FBECDBFDF91CF911F9135
:1024E0000F910895EF92FF920F931F93CF93DF9375
:1024F000EC017B010C811D816115710511F480E0F7
:1025000016C04115510591F0040F151FB8010E9426
:1025100076118823A1F3288139818C819D81B701AF
:10252000820F931F0E94EA161D830C8381E0DF91C6
:10253000CF911F910F91FF90EF900895FB0144817F
:102540005581608171810C947212CF93DF9300D01A
:10255000CDB7DEB769831A8241E050E0BE016F5FFC
:102560007F4F0E9472120F900F90DF91CF910895CC
:10257000CF93DF93EC01FB01448155816081718130
:102580000E947212811103C0CE010E944A11CE0135
:10259000DF91CF910895CF93DF93EC016115710521
:1025A00069F0FB0101900020E9F7AF0141505109AA
:1025B000461B570B0E947212811103C0CE010E946C
:1025C0004A11CE01DF91CF910895FC01248135811C
:1025D000232B31F421E061157105A1F0FB0108C046
:1025E000FC01808191816115710531F421E0FC01CC
:1025F0008081882339F005C00E94E11621E0892BF3
:1026000009F020E0822F0895FC01848195816817EC
:10261000790720F480819181009729F410926D0749
:102620008DE697E00895860F971F0895FC01248199
:1026300035816217730748F480819181009729F0F2
:10264000FC01E60FF71F8081089580E008950C9447
:102650001613FC0180819181009711F00C94A8164B
:1026600060E070E0CB01089508950E949A130E94E3
:1026700034130E948505CFE0DFE00E944A092097CD
:10268000E1F30E940F0FF9CF1F920F920FB60F9236
:1026900011242F933F938F939F93AF93BF93809178
:1026A0006F0790917007A0917107B09172073091F8
:1026B0006E0723E0230F2D3720F40196A11DB11DD5
:1026C00005C026E8230F0296A11DB11D20936E07B9
:1026D00080936F0790937007A0937107B093720770
:1026E0008091730790917407A0917507B091760758
:1026F0000196A11DB11D8093730790937407A09359
:102700007507B0937607BF91AF919F918F913F91DD
:102710002F910F900FBE0F901F9018952FB7F89420
:1027200060916F07709170078091710790917207A7
:102730002FBF0895789484B5826084BD84B581608C
:1027400084BD85B5826085BD85B5816085BDEEE6B9
:10275000F0E0808181608083E1E8F0E01082808198
:1027600082608083808181608083E0E8F0E0808106
:1027700081608083E1EBF0E0808184608083E0EB26
:10278000F0E0808181608083EAE7F0E0808184600E
:10279000808380818260808380818160808380816A
:1027A000806880831092C10008958E3008F08E50AA
:1027B00087702091070290E4299F90011124822BB9
:1027C00080937C0080917A00806480937A0080916D
:1027D0007A0086FDFCCF809178002091790090E00E
:1027E000922B0895A1E21A2EAA1BBB1BFD010DC05E
:1027F000AA1FBB1FEE1FFF1FA217B307E407F507B1
:1028000020F0A21BB30BE40BF50B661F771F881F8C
:10281000991F1A9469F760957095809590959B0122
:10282000AC01BD01CF010895052E97FB1EF4009465
:102830000E942B1457FD07D00E94F21307FC03D00F
:102840004EF40C942B1450954095309521953F4FA4
:102850004F4F5F4F089590958095709561957F4F8C
:102860008F4F9F4F089569279627692778278727D5
:10287000782708950E944B14A59F900DB49F900D4A
:10288000A49F800D911D11240895EE0FFF1F059048
:10289000F491E02D0994A29FB001B39FC001A39FC2
:1028A000700D811D1124911DB29F700D811D112489
:1028B000911D0895CF93DF938230910510F482E04B
:1028C00090E0E0917907F0917A0720E030E0A0E015
:1028D000B0E0309739F14081518148175907B8F07D
:1028E0004817590771F482819381109729F0139644
:1028F0009C938E9312972CC090937A0780937907BC
:1029000027C02115310531F04217530718F0A901EE
:10291000DB0101C0EF019A01BD01DF010280F381FB
:10292000E02DD7CF21153105F9F0281B390B2430C4
:10293000310580F48A819B816115710521F0FB01CD
:102940009383828304C090937A0780937907FE0172
:10295000329644C0FE01E20FF31F819391932250FF
:102960003109398328833AC020917707309178075D
:10297000232B41F420910201309103013093780719
:102980002093770720910001309101012115310535
:1029900041F42DB73EB74091040150910501241B2D
:1029A000350BE0917707F0917807E217F307A0F471
:1029B0002E1B3F0B2817390778F0AC014E5F5F4F95
:1029C0002417350748F04E0F5F1F50937807409348
:1029D00077078193919302C0E0E0F0E0CF01DF91AF
:1029E000CF910895CF93DF93009709F487C0FC013E
:1029F000329713821282C0917907D0917A0720977B
:102A000081F420813181280F391F809177079091BF
:102A100078078217930779F5F0937807E0937707A3
:102A20006DC0DE0120E030E0AE17BF0750F4129613
:102A30004D915C9113979D014115510509F1DA0102
:102A4000F3CFB383A28340815181840F951F8A17EE
:102A50009B0771F48D919C911197840F951F02969D
:102A60009183808312968D919C9113979383828397
:102A70002115310529F4F0937A07E09379073EC0D8
:102A8000D9011396FC93EE9312974D915D91A40F8B
:102A9000B51FEA17FB0779F480819181840F951F98
:102AA0000296D90111969C938E93828193811396FD
:102AB0009C938E931297E0E0F0E08A819B810097CF
:102AC00019F0FE01EC01F9CFCE010296288139817F
:102AD000820F931F209177073091780728173907C5
:102AE00069F4309729F410927A071092790702C09E
:102AF00013821282D0937807C0937707DF91CF912A
:102B000008958F929F92AF92BF92CF92DF92EF92F1
:102B1000FF92CF93DF93EC01688179818A819B8159
:102B2000611571058105910521F464E279ED8BE56C
:102B300097E02DE133EF41E050E00E941414490189
:102B40005A019B01AC01A7EAB1E40E943A146B015F
:102B50007C01ACEEB4EFA50194010E945417C60E9F
:102B6000D71EE81EF91EF7FE06C081E0C81AD1087C
:102B7000E10880E8F80AC882D982EA82FB82C701AC
:102B8000B6019F77DF91CF91FF90EF90DF90CF90CC
:102B9000BF90AF909F908F9008950E9481150895E7
:102BA00086E091E00E94811508956093060170937C
:102BB000070180930801909309010895A0E0B0E017
:102BC000E4EEF5E10C945D17EC01CB01209719F4CC
:102BD0000E945A14B8C0FE01E60FF71F9E01225052
:102BE0003109E217F30708F4ACC0D9010D911C912B
:102BF000119706171707B8F00530110508F49FC0A4
:102C0000A801445051094617570708F498C00250CC
:102C10001109061B170B019311936D937C93CF0140
:102C20000E94F2148CC05B01A01AB10A4E01800E02
:102C3000911EA0917907B0917A07612C712C60E008
:102C400070E0109709F449C0A815B905C9F5ED90D1
:102C5000FC901197670142E0C40ED11CCA14DB043A
:102C600078F147018A189B08640142E0C40ED11C28
:102C70001296BC9012971396AC91B5E0CB16D10486
:102C800040F0B282A38391828082D9018D939C937C
:102C900009C00E5F1F4F0E0D1F1DF9011183008328
:102CA000EB2DFA2F6115710531F0DB011396FC93C2
:102CB000EE93129744C0F0937A07E09379073FC0F0
:102CC0006D917C9111976616770608F43B01BD0162
:102CD00012960D90BC91A02DB4CF609177077091A2
:102CE000780768157905E9F468167906D0F44091FB
:102CF0000001509101014115510541F44DB75EB7F6
:102D00006091040170910501461B570BE417F5070C
:102D1000C0F4F0937807E0937707F90191838083FB
:102D20000EC00E945A147C01009759F0A801BE0100
:102D30000E94D816CE010E94F214C70104C0CE0131
:102D400002C080E090E0CDB7DEB7EEE00C947917DA
:102D50001F93FC0199278827BC01E8941191103238
:102D6000E9F3193010F01E30C8F31B3251F01D3258
:102D700049F4689406C00E940717610F711D811DF8
:102D8000911D119110531A30B0F33EF49095809537
:102D9000709561957F4F8F4F9F4F1F910895FB0155
:102DA000DC0102C005900D9241505040D8F70895C3
:102DB000FB01DC0102C001900D9241505040D8F758
:102DC0000895FB01DC018D91019080190110D9F368
:102DD000990B0895FB01DC0101900D920020E1F7B1
:102DE00008954532510520F4423010F00C94FC1641
:102DF000FB011082CB010895BB274A3031F499239F
:102E000022F4BDE2909581959F4F0C942817592F7D
:102E1000482F372F262F660F771F881F991F660FA1
:102E2000771F881F991F620F731F841F951F660FDE
:102E3000771F881F991F08954532510520F44230AD
:102E400010F00C942717FB011082CB010895BB27CB
:102E5000FB015527AA27880F991FAA1FA41710F056
:102E6000A41B83955051B9F7A05DAA3308F0A95D62
:102E7000A193009779F7B111B1931192CB010C9402
:102E80004117DC01FC01672F71917723E1F732973D
:102E900004C07C916D9370836291AE17BF07C8F335
:102EA0000895B7FF0C943A140E943A14821B930BB6
:102EB00008952F923F924F925F926F927F928F92DE
:102EC0009F92AF92BF92CF92DF92EF92FF920F93B9
:102ED0001F93CF93DF93CDB7DEB7CA1BDB0B0FB6C3
:102EE000F894DEBF0FBECDBF09942A883988488880
:102EF0005F846E847D848C849B84AA84B984C88416
:102F0000DF80EE80FD800C811B81AA81B981CE0F0C
:102F1000D11D0FB6F894DEBF0FBECDBFED010895F1
:102F200010E0C2E8D0E004C0FE010E9447142296DF
:0A2F3000C438D107C9F7F894FFCFA9
:102F3A0000007B07800001000000273A9C1E2D3804
:102F4A000B482E2B2B2B2B2B2B2B2B2B2B2B2B2BC7
:102F5A002B2B2B2B2B2B2B2B2B2B2B2B2B2B2B2BB7
:102F6A002B2B2B2B2B2B2B2B2B2B2B2B2B2B2B2BA7
:102F7A002B2B2B2B2B2B2B2B2B2B2B2B2B2B2B2B97
:102F8A002B2B2B2B2B2B2B2B2B2B2B2B2B2B2B2B87
:102F9A002B2B2B2B2B2B2B2B2B2B2B2B2B2B2B2B77
:102FAA002B2B2B2B2B2B2B2B2B2B2B2B2B2B2B2B67
:102FBA002B2B2B2B2B2B2B2B2B2B2B2B2B2B2B2B57
:102FCA002B2B2B2B2B2B2B2B2B2B2B2B2B2B2B2B47
:102FDA002B2B2B2B2B2B2B2B2B2B2B2B2B2B2B2B37
:102FEA002B2B2B2B2B2B2B2B2B2B2B2B2B2B2B2B27
:102FFA002B2B2B2B2B2B2B2B2B2B2B2B2B2B2B2B17
:10300A002B2B2B2B2B2B2B2B2B2B2B2B2B2B2B2B06
:10301A002B2B2B2B2B2B2B2B2B2B2B2B2B2B2B2BF6
:10302A002B2B2B0E000E003D52CB746F9E6C8345EA
:10303A007E1A295B9D1C48014E616E6F242049202F
:10304A0057414E5420544F20504C4159204120475B
:10305A00414D4520210A004E616E6F24206E6F7724
:10306A002C20796F752061726520696E2028302CBA
:10307A003029206F6620616E20756E6B6E6F776ED9
:10308A00206D617A652E0A004E616E6F2420796F79
:10309A0075206D75737420726561636820283134F8
:1030AA002C20313429206F662074686973206D6181
:1030BA007A652E0A004E616E6F2420796F7520683A
:1030CA006176652074656E207365636F6E64732024
:1030DA00746F2072656163682069742E0A004E61FC
:1030EA006E6F242074686520274F27206973207724
:1030FA006865726520796F75206172652E0A004EC7
:10310A00616E6F242074686520272E27206D6172F6
:10311A006B20697320726F61642E0A004E616E6FB4
:10312A00242074686520272B27206D61726B206923
:10313A00732077616C6C2E0A004E616E6F242073C7
:10314A00656E64205B775D20746F206D6F766520F5
:10315A0075700A004E616E6F242073656E64205B81
:10316A00645D20746F206D6F76652072696768747C
:10317A000A004E616E6F242073656E64205B735D76
:10318A0020746F206D6F766520646F776E0A004E2B
:10319A00616E6F242073656E64205B615D20746FBD
:1031AA00206D6F7665206C6566740A004E616E6FDD
:1031BA00242073686F77206D61700A00202B20002D
:1031CA00202D2000202A20004E616E6F242000202E
:1031DA003D2000484954434F4E2032303135204E6D
:1031EA00414E4F2047414D450A004E616E6F2420E3
:1031FA00656E74657220796F7572207465616D20D1
:10320A00746F6B656E3A0A005573657224206D7986
:10321A0020616E73776572206973200062333437D8
:10322A006261653262666364316566363739616147
:10323A00333137376430313766303432653532648A
:10324A00636132004E616E6F24207469636B65742A
:10325A0020697320004E616E6F242077726F6E674B
:10326A0020616E737765720A004E616E6F24206664
:10327A00696E6973680A0055736572242073656EF6
:10328A0064205B005D0A005573657224206D792005
:10329A007465616D20746F6B656E20697320004ED2
:1032AA00616E6F24205B305D204D6F7273650A007A
:1032BA004E616E6F24205B315D204D617A650A0094
:1032CA004E616E6F24205B325D2043616C63756CC6
:1032DA0061746F720A004E616E6F2420656E7465A8
:1032EA007220796F75722063686F6963653A0A00A4
:1032FA0055736572242063686F696365205B305D6E
:10330A00204D6F7273650A005573657224206368D5
:10331A006F696365205B315D204D617A650A0055EE
:10332A00736572242063686F696365205B325D2070
:10333A0043616C63756C61746F720A004E616E6FE3
:10334A0024206163746976617465204D6F727365B8
:10335A000A004E616E6F24202E2E2E2E202E2E2035
:10336A002D202D2E2D2E202D2D2D202D2E202D2EB3
:10337A00202E2D202D2E202D2D2D202D2D2E202EB0
:10338A002D202D2D202E202D2D202D2D2D202E2DA2
:10339A002E202E2E2E202E0A004E616E6F242065BE
:1033AA006E74657220796F757220616E73776572BB
:1033BA003A0A004E616E6F24206163746976617403
:1033CA0065204D617A650A004E616E6F2420616343
:1033DA007469766174652043616C63756C61746F9E
:1033EA00720A004E616E6F242074696D656F757480
:1033FA00202839207365636F6E6473290A004E6151
:10340A006E6F242074696D656F757420283220737D
:10341A0065636F6E6473290A0000000000350EE8C8
:10342A001000000000600FE810E20EFB0EED0E3EE9
:02343A000F0081
:00000001FF
