:100000000C9442000C946A000C946A000C946A00F0
:100010000C946A000C946A000C946A000C946A00B8
:100020000C946A000C946A000C946A000C946A00A8
:100030000C946A000C946A000C946A000C946A0098
:100040000C94D7100C946A000C94E80D0C941A0EC2
:100050000C946A000C946A000C946A000C946A0078
:100060000C946A000C946A000123456789ABCDEFBC
:10007000FEDCBA9876543210F0E1D2C334057C0C21
:100080004A0E400511241FBECFEFD8E0DEBFCDBF22
:1000900016E0A0E0B1E0E0E6FAE202C005900D92C1
:1000A000A430B107D9F727E0A4E0B6E001C01D9263
:1000B000A437B207E1F710E0C2E8D0E004C022970D
:1000C000FE010E94DA11CC37D107C9F70E94C8108F
:1000D0000C9423150C9400008F929F92AF92BF92C4
:1000E000CF92DF92EF92FF920F931F93CF93DF9304
:1000F00062EF71E08AEC96E00E94D90E61E172E055
:100100008AEC96E00E94D90E62E472E08AEC96E0F6
:100110000E94D90E6FE672E08AEC96E00E94D90E3A
:1001200068E972E08AEC96E00E94D90E69EB72E011
:100130008AEC96E00E94D90E66ED72E08AEC96E0B9
:100140000E94D90E63EF72E08AEC96E00E94D90E0D
:100150006EE073E08AEC96E00E94D90E6CE273E0E8
:100160008AEC96E00E94D90E69E473E08AEC96E08E
:100170000E94D90EC0E0D0E000E010E0E12CF12CAC
:100180008BE2882E9EE2B92E2EE2922E3FE0A32E25
:1001900010920B0610920A06109209061092080699
:1001A0004CE051E020E030E080E090E0009731F456
:1001B0002115310519F490920C0104C0FA01E80FE1
:1001C000F91F808201968F30910581F72F5F3F4F95
:1001D000415F5F4F2F30310539F7C12CD12C40E101
:1001E000C41647E2D4060CF0B9C18091EF0190919A
:1001F000F001E816F90641F48091ED019091EE01CD
:100200000817190709F4B0C1C930D1050CF446C06C
:100210004EE050E060E070E088E196E00E94ED087A
:10022000EB01219644E050E060E070E088E196E068
:100230000E94ED08611571058105910579F0613025
:1002400071058105910541F5AC9E9001AD9E300D83
:100250001124245F3E4F80E090E016C0AC9E9001D8
:10026000AD9E300D1124245F3E4F8EE090E0F901E9
:10027000E80FF91F40814E3269F00197C0F70CC0BA
:1002800001968F30910541F0F901E80FF91F408187
:100290004E32B1F78E017C01C0E0D0E044E050E086
:1002A00060E070E088E196E00E94ED086130710541
:1002B0008105910509F45EC02CF4672B682B692B2E
:1002C00071F03EC1623071058105910509F4A0C04D
:1002D000633071058105910509F4E7C031C101154D
:1002E000110509F428C1023011057CF0C8010297FC
:1002F000A89EF001A99EF00D1124EE0DFF1DE45FF4
:10030000FE4F80818E3209F416C1C70101970D9707
:1003100088F4C8010197A89EF001A99EF00D112450
:10032000E45FFE4FEE0DFF1D81818E3209F403C1A3
:10033000319719C0E114F10459F4C8010197A89E3E
:10034000F001A99EF00D1124E45FFE4F81810CC0E5
:100350006EE0E616F10459F4A09EF001A19EF00DA6
:100360001124E45FFE4F80818E3209F4E4C0015015
:100370001109E6C08EE0E816F10409F4DCC04DE096
:10038000E416F1046CF4A09EF001A19EF00D11247E
:10039000E45FFE4FEE0DFF1D82818E3209F4CBC06B
:1003A0009801215031092D303105E0F4C701019643
:1003B000A8014F5F5F4FA49EF001A59EF00D112490
:1003C000E80FF91FE45FFE4F40814E3209F4B3C0DD
:1003D000A29EF001A39EF00D1124E80FF91FE45F27
:1003E000FE4F0EC00115110529F4F701E45FFE4F21
:1003F000808907C00E30110539F4F701E053FE4F34
:1004000080818E3209F497C06FEFE61AF60A98C021
:100410000E30110509F48FC00D3011057CF4C801B0
:100420000296A89EF001A99EF00D1124EE0DFF1D6D
:10043000E45FFE4F80818E3209F47DC0C7010197D1
:100440000D9788F4C8010196A89EF001A99EF00DB1
:100450001124E45FFE4FEE0DFF1D81818E3209F401
:100460006AC031971BC0E114F10459F4C801019628
:10047000A89EF001A99EF00D1124E45FFE4F81813A
:100480000EC08EE0E816F10469F4C8010296A89E39
:10049000F001A99EF00D1124E45FFE4F80818E32A1
:1004A00009F449C00F5F1F4F4BC0E114F10409F478
:1004B00042C041E0E416F10461F0A09EF001A19E6B
:1004C000F00D1124EE0DFF1DE65FFE4F80818E3290
:1004D00091F19801215031092D303105D8F4C7012F
:1004E0000197A8014F5F5F4FA49EF001A59EF00DFC
:1004F0001124E80FF91FE45FFE4F40814E32D9F01E
:10050000A29EF001A39EF00D1124E80FF91FE45FF5
:10051000FE4F0EC00115110529F4F701E45FFE4FEF
:10052000868507C00E30110541F4F701E253FE4FF6
:1005300080818E3211F421960DC061E0E61AF10837
:10054000A09EF001A19EF00D1124EE0DFF1DE45FB1
:10055000FE4FB0828FEFC81AD80A41CE60E1C616AE
:1005600067E2D60609F414CE8CE291E000E010E0D8
:10057000FC01E12CF12CA8014F5F5F4F98012E5F29
:100580003F4FDF0190976C916B3209F04BC0119691
:100590006C916B3209F046C011966C916B3209F088
:1005A00041C01D966C916B32E9F511966C916B32DE
:1005B000C9F511966C916B32A9F51D966C916B3251
:1005C00089F511966C916B3269F560816B3251F54A
:1005D00090976C916E3259F4A09EF001A19EF00D9F
:1005E0001124EE0DFF1DE45FFE4FB08257CEDF01F8
:1005F00052976C916E3231F4A49EF001A59EF00DDD
:1006000011240AC0DF0113976C916E3259F4A29E37
:10061000F001A39EF00D1124EE0DFF1DE45FFE4FCF
:1006200060833CCE6FEFE61AF60A31966DE0E6166F
:10063000F10409F0A6CF0F5F1F4F0F960D30110583
:1006400009F096CFDF91CF911F910F91FF90EF901E
:10065000DF90CF90BF90AF909F908F9008954F9272
:100660005F926F927F928F929F92AF92BF92CF9242
:10067000DF92EF92FF920F931F93CF93DF9320911E
:100680000A0630910B068091080690910906211503
:10069000310531F02E30310529F42DE030E002C073
:1006A00021E030E0390141E0641A7108009731F02F
:1006B0008E30910529F48DE090E002C081E090E059
:1006C000EC0121974FE0489F7001499FF00C1124E5
:1006D00000E010E06C014FEFC41AD40AC701835048
:1006E0009F4F7C0159019FEFA91AB90ACC16DD066C
:1006F000ECF14701800E911E2301A414B50464F1AE
:1007000080910A0690910B064816590649F480918B
:10071000080690910906C817D90711F46FE414C0B0
:100720008091EF019091F0014816590649F48091AB
:10073000ED019091EE01C817D90711F468E504C0E6
:10074000F401E40DF51D60818AEC96E00E94DB0E59
:100750004FEF441A540AD1CF6FE072E08AEC96E072
:100760000E94D90E2196015F1F4FC0CF66E673E04D
:100770008AEC96E00E94D90E6FE072E08AEC96E077
:10078000DF91CF911F910F91FF90EF90DF90CF906D
:10079000BF90AF909F908F907F906F905F904F90A1
:1007A0000C94D90E0E946C000C942F03EF92FF92D0
:1007B0000F931F93CF93DF93CDB7DEB768970FB634
:1007C000F894DEBF0FBECDBF60E172E0CE0143966C
:1007D0000E94580F00E010E00115110509F091C0CA
:1007E00042E050E060E070E088E196E00E94ED08B1
:1007F000611571058105910599F1613071058105DA
:10080000910509F0E6C04AE050E060E070E088E160
:1008100096E00E94ED086F5F7F4F7093070660932C
:1008200006064AE0CE0107960E94EB0FBE016D5E00
:100830007F4FCE0101960E94850FBE01695F7F4FF9
:10084000CE0101960E945D10BC01CE0143960E942C
:100850006E0FCE0101960E94EA0ECE010796B7C038
:100860004AE050E060E070E088E196E00E94ED0828
:100870007B012FEFE21AF20A4AE050E060E070E0FC
:1008800088E196E00E94ED086F5F7F4FE69EC00111
:10089000E79E900DF69E900D11249093070680938D
:1008A00006064AE0CE0101960E94EB0F4AE0B7012E
:1008B000CE010D960E94EB0FBE016D5E7F4FCE0103
:1008C00007960E94850FBE01635F7F4FCE0107969A
:1008D0000E945D1066E773E00E947010BE016F5FBA
:1008E0007F4F0E945D10BC01CE0143960E946E0FA7
:1008F000CE0107960E94EA0ECE010D960E94EA0EE6
:1009000064C044E150E060E070E088E196E00E945D
:10091000ED087B012FEFE21AF20A42E050E060E0BE
:1009200070E088E196E00E94ED086115710581058F
:10093000910501F1613071058105910509F049C00A
:1009400080910606909107068E199F0990930706DD
:10095000809306064AE0B701CE0101960E94EB0F94
:10096000BE016D5E7F4FCE0107960E94850F6EE738
:1009700073E019C080910606909107068E0D9F1DA9
:1009800090930706809306064AE0B701CE010196D0
:100990000E94EB0FBE016D5E7F4FCE0107960E9455
:1009A000850F6AE773E0CE0107960E947010BE01C2
:1009B0006F5F7F4F0E945D10BC01CE0143960E9485
:1009C0006E0FCE0107960E94EA0ECE0101960E949C
:1009D000EA0E0F5F1F4F0530110509F0FDCE62E8EA
:1009E00073E0CE0101960E94580FBE016D5E7F4FED
:1009F000CE0101960E945D1069E873E00E947010BC
:100A0000BC018AEC96E00E94CB0ECE0101960E94BA
:100A1000EA0ECE0143960E94EA0E68960FB6F8944D
:100A2000DEBF0FBECDBFDF91CF911F910F91FF9021
:100A3000EF90089580E00E9468110E94E20E26E087
:100A400040E052EC61E070E08AEC96E00E946A0DB2
:100A50006FE873E08AEC96E00E94D90E6FE072E0D6
:100A60008AEC96E00C94D90E60E172E082E196E0A7
:100A70000E94580F60E172E08CE096E00C94580FF1
:100A80008CE096E00E94EA0E82E196E00C94EA0E79
:100A9000EF92FF920F931F93CF93DF93CDB7DEB703
:100AA0002C970FB6F894DEBF0FBECDBF8AEC96E050
:100AB0000E94870C892B09F479C08AEC96E00E9489
:100AC000A00C8A3009F06DC066EA73E0CE01019691
:100AD0000E94580F6CE076E0CE0101960E945D10F6
:100AE0006FE072E00E947010BC018AEC96E00E94F8
:100AF000CB0ECE0101960E94EA0E6FE072E08AEC06
:100B000096E00E94D90E89E196E00E94C1096CE04E
:100B100076E089E196E00E94CB0E89E196E00E94A2
:100B20005A0C7C0160E172E0CE0107960E94580FDA
:100B30008701E12CF12CF80161918F0140E1CE0198
:100B400001960E94BE0FBE016F5F7F4FCE010796D8
:100B50000E944310CE0101960E94EA0EFFEFEF1AA9
:100B6000FF0A84E1E816F10431F76AEB73E0CE0185
:100B700007960E948A10882319F062EE73E002C083
:100B800061E074E08AEC96E00E94D90E65E174E0C1
:100B90008AEC96E00E94D90ECE0107960E94EA0EDA
:100BA00005C0682F8CE096E00E944A102C960FB684
:100BB000F894DEBF0FBECDBFDF91CF911F910F9193
:100BC000FF90EF9008951F93CF93DF93CDB7DEB7DB
:100BD0002C970FB6F894DEBF0FBECDBF8AEC96E01F
:100BE0000E94870C892B09F4C8C08AEC96E00E9409
:100BF000A00C8A3009F0BCC060E070E08CE096E0A8
:100C00000E94BA10182F60E172E08CE096E00E941A
:100C10008E0F612FCE0107960E94A60F63E274E04B
:100C2000CE0101960E94580FBE01695F7F4FCE0131
:100C300001960E945D1060E374E00E947010BC0198
:100C40008AEC96E00E94CB0ECE0101960E94EA0E3D
:100C5000CE0107960E94EA0E6FE072E08AEC96E001
:100C60000E94D90E143609F47AC01CF41136F1F141
:100C700084C0133709F464C0173709F07EC020918F
:100C800008063091090680910A0690910B062115FD
:100C9000310599F0215031094FE0429FF001439F07
:100CA000F00D1124E80FF91FE45FFE4F40814B3235
:100CB00021F030930906209308062091EF0130912E
:100CC000F00182179307C9F52091080630910906B3
:100CD0008091ED019091EE012817390771F563E3DA
:100CE00074E08AEC96E00E94D90E47C080910A0613
:100CF00090910B060097B1F0019720910806309172
:100D000009064FE0429FF001439FF00D1124E80FC8
:100D1000F91FE45FFE4F20812B3221F090930B06E8
:100D200080930A0620910A0630910B068091EF010C
:100D30009091F0012817390739F20E942F031DC046
:100D4000209108063091090680910A0690910B06C1
:100D50002E30310509F4B1CF2F5F3F4F9DCF8091E9
:100D60000A0690910B068E309105E1F20196C5CFEF
:100D7000682F8CE096E00E944A102C960FB6F894EB
:100D8000DEBF0FBECDBFDF91CF911F9108950F93AE
:100D90001F93CF93DF9300D000D000D0CDB7DEB744
:100DA0008AEC96E00E94870C892B09F44DC08AECEE
:100DB00096E00E94A00C8A3009F041C066EA73E018
:100DC000CE0101960E94580F6CE076E0CE010196AC
:100DD0000E945D106FE072E00E947010BC018AEC0E
:100DE00096E00E94CB0ECE0101960E94EA0E6FE0C3
:100DF00072E08AEC96E00E94D90E8CE096E00E94A8
:100E0000BC1020910606309107068901222717FDA4
:100E10002095322F601771078207930719F462E556
:100E200074E002C061E074E08AEC96E00E94D90EA2
:100E300065E174E08AEC96E00E94D90E05C0682F47
:100E40008CE096E00E944A1026960FB6F894DEBF1A
:100E50000FBECDBFDF91CF911F910F9108950F93DA
:100E60001F9380910A0190910B018636910509F438
:100E7000D8C00CF048C08230910509F461C024F557
:100E8000019709F02FC161E774E08AEC96E00E94B7
:100E9000D90E62E874E08AEC96E00E94D90E62E90D
:100EA00074E08AEC96E00E94D90E68EA74E08AEC5D
:100EB00096E00E94D90E6FE072E08AEC96E00E9404
:100EC000D90E82E090E005C18436910509F48EC008
:100ED0008536910509F006C165E875E08AEC96E073
:100EE0000E94D90E6FE072E08AEC96E00E94D90E63
:100EF0000E94D2030E94211170930506609304069C
:100F000089EE93E0E6C0893E23E0920709F4A6C08B
:100F100044F4883E934009F0E5C01F910F910C9472
:100F200048058A3E23E0920709F4B2C08F30974209
:100F300009F0D8C08AEC96E01F910F910C94CC0D6B
:100F40008AEC96E00E94870C892B09F4CBC08AECCE
:100F500096E00E94A00C8A3009F041C060E070E089
:100F60008CE096E00E94BA10182F60E172E08CE0ED
:100F700096E00E948E0F103379F462EC74E08AECF4
:100F800096E00E94D90E6FE072E08AEC96E00E9433
:100F9000D90E84E690E09DC0113379F46AED74E0D7
:100FA0008AEC96E00E94D90E6FE072E08AEC96E03F
:100FB0000E94D90E85E690E08CC0123309F092C0F1
:100FC00061EF74E08AEC96E00E94D90E6FE072E067
:100FD0008AEC96E00E94D90E86E690E07AC0682FEF
:100FE0008CE096E01F910F910C944A106EE075E032
:100FF0008AEC96E00E94D90E64E275E08AEC96E0F5
:101000000E94D90E6BE675E08AEC96E00E94D90E3C
:101010006FE072E08AEC96E00E94D90E88EE93E0D1
:1010200058C06AE975E08AEC96E00E94D90E0E94E9
:10103000D6030E94211170930506609304066BE6A7
:1010400075E08AEC96E00E94D90E6FE072E08AECBF
:1010500096E00E94D90E8AEE93E03BC00E942111D7
:101060000091040610910506222717FD2095322FC6
:10107000601B710B820B930B6932734281059105E2
:1010800018F065EB75E019C01F910F910C94E30502
:101090000E9421110091040610910506222717FDD8
:1010A0002095322F601B710B820B930B693E7340AE
:1010B0008105910598F060ED75E08AEC96E00E945C
:1010C000D90E65E174E08AEC96E00E94D90E8FE0BB
:1010D00097E290930B0180930A0104C01F910F9136
:1010E0000C94C7061F910F910895CF93DF931F9221
:1010F000CDB7DEB750917C0040917A0030917B00F3
:1011000028B197B180E480937C0084E880937A00D2
:1011100010927B004098389A3898419A80917A00D2
:10112000806480937A0061E080917A0086FF04C039
:1011300088B1862788B9F8CF8091780060917900CE
:10114000698350937C0040937A0030937B0028B9E8
:1011500097B9817090E00F90DF91CF9108950F9330
:101160001F93CF93DF93EC01CE010E9475088C0191
:10117000CE010E947508880F991F802B912B81301A
:10118000910529F0029781F781E090E002C080E0AC
:1011900090E0DF91CF911F910F9108950F931F93CE
:1011A000CF93DF93EC01CE010E94AF088C01CE01FA
:1011B0000E94AF08880F991F802B912B81309105D9
:1011C00029F0029781F781E090E002C080E090E092
:1011D000DF91CF911F910F9108954F925F926F927F
:1011E0007F928F929F92AF92BF92CF92DF92EF92B7
:1011F000FF920F931F93CF93DF9300D000D0CDB712
:10120000DEB78C01411551056105710509F49EC0D9
:10121000DB01CA010197A109B1096C017D01C4225A
:10122000D522E622F722CD28CE28CF2809F46EC099
:101230006C017D01F594E794D794C794C82AD92A04
:10124000EA2AFB2AD701C60122E0B595A795979512
:1012500087952A95D1F78C299D29AE29BF296C0144
:101260007D0134E0F594E794D794C7943A95D1F78B
:10127000C82AD92AEA2AFB2ABB27F7FCBA95AF2D40
:101280009E2D8D2D8C299D29AE29BF294D01BB2472
:1012900097FCB094AB2C882A992AAA2ABB2A8FEFF4
:1012A000881A980AA80AB80AB594A79497948794BC
:1012B00024013501C12CD12C7601C80149835A8300
:1012C0006B837C830E94CE0849815A816B817C812B
:1012D000892B21F0C428D528E628F728C416D5067E
:1012E000E606F7062CF4759467945794479405C066
:1012F00024013501C12CD12C760141145104610423
:101300007104D9F63C2D2D2DC70124C06A017B0143
:10131000F594E794D794C794812C912C5401C1146F
:10132000D104E104F10471F0C8010E94CE08892BB8
:1013300021F08C289D28AE28BF28F594E794D794F7
:10134000C794EDCF382D292DC50104C030E020E031
:1013500080E090E0632F722F0F900F900F900F900E
:10136000DF91CF911F910F91FF90EF90DF90CF9081
:10137000BF90AF909F908F907F906F905F904F90B5
:101380000895CF93DF93EC0144E150E068E670E00C
:101390008B5B9F4F0E946214FE01E75AFF4F108241
:1013A000118212821382CC5BDF4F1882DF91CF91C2
:1013B00008952F923F924F925F926F927F928F92F9
:1013C0009F92AF92BF92CF92DF92EF92FF920F93D4
:1013D0001F93CF93DF93CDB7DEB7A0970FB6F894E6
:1013E000DEBF0FBECDBF9E8F8D8F9C012B5B3F4F0D
:1013F000D9014D915D916D917C914D835E836F8399
:1014000078872C5F3F4FD9014D915D916D917C9113
:1014100049875A876B877C872C5F3F4FD9014D9155
:101420005D916D917C914D875E876F87788B2C5F86
:101430003F4FD9014D915D916D917C91498B5A8BB4
:101440006B8B7C8B2C5F3F4FD9014D915D916D91E2
:101450007C914D8B5E8B6F8B788F498F5A8F6B8F02
:101460007C8F09891A892B893C89CD84DE84EF849D
:10147000F88889849A84AB84BC844D815E816F81B5
:10148000788549835A836B837C83212C312C422DB0
:10149000403198F4D901C8018C259D25AE25BF2582
:1014A00088219921AA21BB2180279127A227B32730
:1014B00087569648AD47B54A8FC0822D8F706D8D87
:1014C0007E8D54E0859F600D711D1124D1011D9604
:1014D000AF70BB271196AA0FBB1FAA0FBB1F8D8D24
:1014E0009E8DA80FB91FF1013896EF70FF27319636
:1014F000EE0FFF1FEE0FFF1FE80FF91F8D919D915B
:101500000D90BC91A02D4080518062807380842515
:101510009525A625B725FB014480558066807780F8
:1015200084259525A625B725F1013296EF70FF2772
:101530003196EE0FFF1FEE0FFF1F6D8C7E8CE60DB8
:10154000F71D408051806280738084259525A625F3
:10155000B725880F991FAA1FBB1F811DFB0184831C
:101560009583A683B783443108F494CFD701C6018D
:10157000483268F488259925AA25BB25802791271C
:10158000A227B3278F559441A642B14925C04C33B9
:10159000B8F488299929AA29BB2980239123A22359
:1015A000B32326013701482059206A207B20842953
:1015B0009529A629B72984529344A44EB0470CC05C
:1015C00088259925AA25BB2580279127A227B327FF
:1015D0008A529E43AD49B5434F706D8C7E8C54E06A
:1015E000459F600C711C112478A26F8E49815A812D
:1015F0006B817C81EBE17695679557954795EA95E8
:10160000D1F749805A806B807C80F5E0440C551CF2
:10161000661C771CFA95D1F7442955296629772944
:10162000EF8DF8A14480558066807780440D551D6C
:10163000661D771D480F591F6A1F7B1F898D9A8D64
:10164000AB8DBC8D480F591F6A1F7B1FD501C4018C
:10165000E2E0B695A79597958795EA95D1F7FEE1D3
:10166000880C991CAA1CBB1CFA95D1F7882A992AC8
:10167000AA2ABB2A9FEF291A390AA0E52A163104A3
:1016800089F0098F1A8F2B8F3C8F97018601750186
:10169000640189809A80AB80BC8049835A836B83C4
:1016A0007C83F5CEED8DFE8DEB5BFF4F8D819E81B2
:1016B000AF81B885480F591F6A1F7B1F4083518334
:1016C000628373836D8C7E8C99E4690E711C8981B1
:1016D0009A81AB81BC8149855A856B857C85840F55
:1016E000951FA61FB71FF30180839183A283B38345
:1016F000ED8DFE8DE35BFF4F4D855E856F857889AF
:10170000840E951EA61EB71E80829182A282B3828D
:10171000ED8DFE8DEF5AFF4F69897A898B899C89FF
:10172000C60ED71EE81EF91EC082D182E282F38265
:101730004D8D5E8D4B5A5F4F8D899E89AF89B88DD7
:10174000080F191F2A1F3B1FDA010D931D932D93BC
:101750003C931397A0960FB6F894DEBF0FBECDBF93
:10176000DF91CF911F910F91FF90EF90DF90CF907D
:10177000BF90AF909F908F907F906F905F904F90B1
:101780003F902F900895CF93DF93EC01CC5BDF4F18
:10179000388123E02327FC01E20FF11D648321E05F
:1017A000230F2883203419F40E94D9091882DF916D
:1017B000CF910895262FFC01E75AFF4F40815181B8
:1017C000628173814F5F5F4F6F4F7F4F40835183C3
:1017D00062837383622F0E94C30B81E090E00895BF
:1017E0000F931F93CF93DF93EC0160E80E94C30B2C
:1017F0008E010C5B1F4FF801808160E0883321F07F
:10180000CE010E94C30BF7CFCE010E94C30B60E054
:10181000CE010E94C30B60E0CE010E94C30B8E017B
:10182000075A1F4FF8016081718182819381EDE138
:101830009695879577956795EA95D1F7CE010E94A1
:10184000C30BF8016081718182819381F5E19695E6
:10185000879577956795FA95D1F7CE010E94C30BCE
:10186000F8016081718182819381ADE096958795C1
:1018700077956795AA95D1F7CE010E94C30BF80121
:101880006081718182819381B5E096958795779586
:101890006795BA95D1F7CE010E94C30BF80160811C
:1018A000660F660F660FCE01DF91CF911F910F91EA
:1018B0000C94C30BCF93DF93EC010E94F00BAE01AD
:1018C00025E030E0FA01EB5BFF4F6081718182819E
:1018D00093810E94C6116083718382839383215018
:1018E00031094C5F5F4F2115310561F7CE018B5BEC
:1018F0009F4FDF91CF91089510921C0610921B0606
:101900008FEE95E090931A06809319060895FC01D6
:10191000818D228D90E0805C9F4F821B91098F7397
:1019200099270895FC01918D828D981731F0828D51
:10193000E80FF11D858D90E008958FEF9FEF0895DA
:10194000FC01918D828D981761F0828DDF01A80FC7
:10195000B11D5D968C91928D9F5F9F73928F90E0E9
:1019600008958FEF9FEF089580E49EE0892B49F062
:1019700080E090E0892B29F00E94400E81110C94A8
:1019800000000895FC01848DDF01A80FB11DA35A4A
:10199000BF4F2C91848D90E001968F739927848F8F
:1019A000A689B7892C93A089B1898C9180648C9386
:1019B000938D848D981306C00288F389E02D808171
:1019C0008F7D80830895CF93DF93EC01888D8823EA
:1019D000C9F0EA89FB89808185FD05C0A889B9899C
:1019E0008C9186FD0FC00FB607FCF5CF808185FF77
:1019F000F2CFA889B9898C9185FFEDCFCE010E94E5
:101A0000C20CE7CFDF91CF910895CF92DF92FF9282
:101A10000F931F93CF93DF931F92CDB7DEB76C0167
:101A2000DC015B969C915B975C968C915C9798131C
:101A300007C05096ED91FC915197808185FD32C091
:101A4000F601038D10E00F5F1F4F0F731127F02E6B
:101A5000F601848DF81211C00FB607FCF9CFD6013C
:101A60005096ED91FC915197808185FFF1CFC60191
:101A700069830E94C20C6981EBCF838DE80FF11D51
:101A8000E35AFF4F6083D6015B960C935B975296A7
:101A9000ED91FC91539780818062808381E058961C
:101AA0008C930DC0D6015696ED91FC9157976083AB
:101AB0005096ED91FC91519780818064808381E004
:101AC00090E00F90DF91CF911F910F91FF90DF90E9
:101AD000CF900895BF92CF92DF92EF92FF92CF9373
:101AE000DF93EC016A017B01B22EE889F98982E07B
:101AF0008083411581EE580761057105A1F060E012
:101B000079E08DE390E0A70196010E9485112150B4
:101B10003109410951095695479537952795211562
:101B200080E1380798F0E889F989108260E874E864
:101B30008EE190E0A70196010E94851121503109A4
:101B4000410951095695479537952795EC85FD85AF
:101B50003083EE85FF852083188EEC89FD89B08265
:101B6000EA89FB89808180618083EA89FB898081A1
:101B700088608083EA89FB89808180688083EA8924
:101B8000FB8980818F7D8083DF91CF91FF90EF90E3
:101B9000DF90CF90BF900895FC01938D848D9813B2
:101BA000FCCFA289B3898C918F7E8C93A289B38953
:101BB0008C91877F8C93A289B3898C918F778C933A
:101BC000A289B3898C918F7D8C93828D818F0895AA
:101BD0001F920F920FB60F9211242F938F939F9302
:101BE000EF93FF93E091DA06F091DB068081E091BC
:101BF000E006F091E10682FD12C090818091E3063B
:101C00008F5F8F732091E406821751F0E091E30615
:101C1000F0E0E653F94F958F8093E30601C0808191
:101C2000FF91EF919F918F912F910F900FBE0F9089
:101C30001F9018951F920F920FB60F9211242F9399
:101C40003F934F935F936F937F938F939F93AF9344
:101C5000BF93EF93FF938AEC96E00E94C20CFF9132
:101C6000EF91BF91AF919F918F917F916F915F9114
:101C70004F913F912F910F900FBE0F901F9018958D
:101C80008AEC96E00E94870C21E0892B09F420E081
:101C9000822F08951092CD061092CC0688EE93E024
:101CA000A0E0B0E08093CE069093CF06A093D0063C
:101CB000B093D10687EF95E09093CB068093CA0648
:101CC00085EC90E09093D7068093D60684EC90E064
:101CD0009093D9068093D80680EC90E09093DB0631
:101CE0008093DA0681EC90E09093DD068093DC0629
:101CF00082EC90E09093DF068093DE0686EC90E025
:101D00009093E1068093E0061092E3061092E406B9
:101D10001092E5061092E6060895CF92DF92EF92B8
:101D2000FF920F931F93CF93DF936C017A01EB0126
:101D3000E60EF71E00E010E0CE15DF0561F06991B8
:101D4000D601ED91FC910190F081E02DC60109953D
:101D5000080F191FF1CFC801DF91CF911F910F918B
:101D6000FF90EF90DF90CF9008956115710581F09D
:101D7000DB010D900020E9F7AD0141505109461BF0
:101D8000570BDC01ED91FC910280F381E02D099469
:101D900080E090E00895DC01ED91FC91DB01149668
:101DA0004D915C9115976D917C910280F381E02DAE
:101DB00009940C94B50EDC01ED91FC910190F08139
:101DC000E02D0994009729F0BC0180E090E00C948C
:101DD00068130895FC01808191810C948512CF9342
:101DE000DF93EC0188819981009711F00E948512A0
:101DF000198218821D821C821B821A82DF91CF9168
:101E000008950F931F93CF93DF93EC018B016F5FC6
:101E10007F4F888199810E947113009731F09983D7
:101E200088831B830A8381E001C080E0DF91CF912A
:101E30001F910F910895CF93DF93EC0188819981D1
:101E4000892B29F08A819B818617970760F4CE0140
:101E50000E94010F882341F08C819D81892B19F408
:101E6000E881F981108281E0DF91CF910895EF92AE
:101E7000FF920F931F93CF93DF93EC017B018A01B5
:101E8000BA010E941B0F811104C0CE010E94EF0E07
:101E900007C01D830C83B701888199810E947D143E
:101EA000CE01DF91CF911F910F91FF90EF90089598
:101EB000FC01118210821382128215821482611534
:101EC000710559F0FB0101900020E9F7AF01415085
:101ED0005109461B570B0C94370F0895CF93DF938E
:101EE000EC01FB018617970761F060817181611534
:101EF000710529F0448155810E94370F02C00E946C
:101F0000EF0ECE01DF91CF910895FC011182108276
:101F100013821282158214820C946E0FCF93DF937A
:101F2000EC016115710561F0FB0101900020E9F7FA
:101F3000AF0141505109461B570B0E94370F02C099
:101F40000E94EF0ECE01DF91CF910895CF93DF93E2
:101F500000D0CDB7DEB7FC0111821082138212824D
:101F60001582148269831A82BE016F5F7F4F0E94BF
:101F70008E0F0F900F90DF91CF9108950F931F93C5
:101F8000CF93DF93CDB7DEB729970FB6F894DEBFB6
:101F90000FBECDBF8C01862FF801118210821382F3
:101FA00012821582148250E0BE016F5F7F4F90E075
:101FB0000E94AF14BE016F5F7F4FC8010E948E0F59
:101FC00029960FB6F894DEBF0FBECDBFDF91CF913B
:101FD0001F910F9108950F931F93CF93DF93CDB768
:101FE000DEB762970FB6F894DEBF0FBECDBF8C018F
:101FF000CB01F801118210821382128215821482A1
:1020000050E0BE016F5F7F4F0E948414BE016F5F7E
:102010007F4FC8010E948E0F62960FB6F894DEBF04
:102020000FBECDBFDF91CF911F910F910895EF9219
:10203000FF920F931F93CF93DF93EC017B010C81F1
:102040001D816115710511F480E016C0411551051F
:1020500091F0040F151FB8010E941B0F8823A1F3F4
:10206000288139818C819D81B701820F931F0E9445
:102070007D141D830C8381E0DF91CF911F910F911F
:10208000FF90EF900895FB0144815581608171813B
:102090000C941710CF93DF9300D0CDB7DEB76983D0
:1020A0001A8241E050E0BE016F5F7F4F0E9417101F
:1020B0000F900F90DF91CF910895CF93DF93EC01B4
:1020C000FB0144815581608171810E94171081114B
:1020D00003C0CE010E94EF0ECE01DF91CF91089593
:1020E000CF93DF93EC016115710569F0FB0101905D
:1020F0000020E9F7AF0141505109461B570B0E94E0
:102100001710811103C0CE010E94EF0ECE01DF91A6
:10211000CF910895FC0124813581232B31F421E0F6
:1021200061157105A1F0FB0108C0FC01808191815E
:102130006115710531F421E0FC018081882339F0BB
:1021400005C00E94741421E0892B09F020E0822F41
:102150000895FC01248135816217730748F480815A
:102160009181009729F0FC01E60FF71F8081089507
:1021700080E008950C94A910FC0180819181009762
:1021800011F00C943B1460E070E0CB0108950895C9
:102190000E942D110E94C7100E941A05C4EBDCE0BA
:1021A0000E942F072097E1F30E94B40CF9CF1F92F1
:1021B0000F920FB60F9211242F933F938F939F93FB
:1021C000AF93BF938091680790916907A0916A07C8
:1021D000B0916B073091670723E0230F2D3720F470
:1021E0000196A11DB11D05C026E8230F0296A11D71
:1021F000B11D209367078093680790936907A093A8
:102200006A07B0936B0780916C0790916D07A0915E
:102210006E07B0916F070196A11DB11D80936C07E9
:1022200090936D07A0936E07B0936F07BF91AF9126
:102230009F918F913F912F910F900FBE0F901F9004
:1022400018952FB7F894609168077091690780918D
:102250006A0790916B072FBF0895789484B58260C8
:1022600084BD84B5816084BD85B5826085BD85B53A
:10227000816085BDEEE6F0E0808181608083E1E8E9
:10228000F0E0108280818260808380818160808321
:10229000E0E8F0E0808181608083E1EBF0E0808124
:1022A00084608083E0EBF0E0808181608083EAE7F6
:1022B000F0E080818460808380818260808380817F
:1022C000816080838081806880831092C10008953E
:1022D0008E3008F08E5087702091F10190E4299F94
:1022E00090011124822B80937C0080917A0080647D
:1022F00080937A0080917A0086FDFCCF80917800EF
:102300002091790090E0922B0895A1E21A2EAA1B49
:10231000BB1BFD010DC0AA1FBB1FEE1FFF1FA21795
:10232000B307E407F50720F0A21BB30BE40BF50B92
:10233000661F771F881F991F1A9469F7609570951B
:10234000809590959B01AC01BD01CF010895052EAC
:1023500097FB1EF400940E94BE1157FD07D00E9407
:10236000851107FC03D04EF40C94BE115095409596
:10237000309521953F4F4F4F5F4F08959095809531
:10238000709561957F4F8F4F9F4F089569279627CE
:10239000692778278727782708950E94DE11A59F4F
:1023A000900DB49F900DA49F800D911D1124089550
:1023B000EE0FFF1F0590F491E02D0994A29FB0014C
:1023C000B39FC001A39F700D811D1124911DB29F69
:1023D000700D811D1124911D0895CF93DF938230DC
:1023E000910510F482E090E0E0917207F09173079C
:1023F00020E030E0A0E0B0E0309739F14081518139
:1024000048175907B8F04817590771F4828193812A
:10241000109729F013969C938E9312972CC090934B
:1024200073078093720727C02115310531F04217D9
:10243000530718F0A901DB0101C0EF019A01BD01AA
:10244000DF010280F381E02DD7CF21153105F9F0AE
:10245000281B390B2430310580F48A819B8161155A
:10246000710521F0FB019383828304C0909373076D
:1024700080937207FE01329644C0FE01E20FF31F03
:102480008193919322503109398328833AC0209156
:10249000700730917107232B41F420910201309194
:1024A0000301309371072093700720910001309150
:1024B00001012115310541F42DB73EB740910401CA
:1024C00050910501241B350BE0917007F0917107C5
:1024D000E217F307A0F42E1B3F0B2817390778F0FB
:1024E000AC014E5F5F4F2417350748F04E0F5F1F5A
:1024F00050937107409370078193919302C0E0E07D
:10250000F0E0CF01DF91CF910895CF93DF93009753
:1025100009F487C0FC01329713821282C0917207BE
:10252000D0917307209781F420813181280F391FC2
:1025300080917007909171078217930779F5F09356
:102540007107E09370076DC0DE0120E030E0AE1748
:10255000BF0750F412964D915C9113979D01411560
:10256000510509F1DA01F3CFB383A2834081518190
:10257000840F951F8A179B0771F48D919C91119779
:10258000840F951F02969183808312968D919C9162
:102590001397938382832115310529F4F0937307F0
:1025A000E09372073EC0D9011396FC93EE93129705
:1025B0004D915D91A40FB51FEA17FB0779F4808157
:1025C0009181840F951F0296D90111969C938E9349
:1025D0008281938113969C938E931297E0E0F0E0B2
:1025E0008A819B81009719F0FE01EC01F9CFCE01A1
:1025F000029628813981820F931F209170073091B4
:1026000071072817390769F4309729F41092730776
:102610001092720702C013821282D0937107C09386
:102620007007DF91CF9108958F929F92AF92BF92E2
:10263000CF92DF92EF92FF92CF93DF93EC0168810C
:1026400079818A819B81611571058105910521F44C
:1026500064E279ED8BE597E02DE133EF41E050E066
:102660000E94A71149015A019B01AC01A7EAB1E4FC
:102670000E94CD116B017C01ACEEB4EFA501940179
:102680000E94E714C60ED71EE81EF91EF7FE06C00C
:1026900081E0C81AD108E10880E8F80AC882D98226
:1026A000EA82FB82C701B6019F77DF91CF91FF904D
:1026B000EF90DF90CF90BF90AF909F908F90089554
:1026C0000E941413089586E091E00E941413089567
:1026D00060930601709307018093080190930901AC
:1026E0000895A0E0B0E0E7E7F3E10C94F014EC010A
:1026F000CB01209719F40E94ED11B8C0FE01E60F3E
:10270000F71F9E0122503109E217F30708F4ACC00D
:10271000D9010D911C91119706171707B8F00530D4
:10272000110508F49FC0A8014450510946175707E6
:1027300008F498C002501109061B170B019311935E
:102740006D937C93CF010E9485128CC05B01A01A0F
:10275000B10A4E01800E911EA0917207B0917307CD
:10276000612C712C60E070E0109709F449C0A81545
:10277000B905C9F5ED90FC901197670142E0C40ED0
:10278000D11CCA14DB0478F147018A189B08640144
:1027900042E0C40ED11C1296BC9012971396AC91D5
:1027A000B5E0CB16D10440F0B282A383918280823F
:1027B000D9018D939C9309C00E5F1F4F0E0D1F1DF5
:1027C000F90111830083EB2DFA2F6115710531F0AA
:1027D000DB011396FC93EE93129744C0F0937307BA
:1027E000E09372073FC06D917C9111976616770652
:1027F00008F43B01BD0112960D90BC91A02DB4CF01
:10280000609170077091710768157905E9F4681691
:102810007906D0F440910001509101014115510514
:1028200041F44DB75EB76091040170910501461BFC
:10283000570BE417F507C0F4F0937107E0937007A6
:10284000F901918380830EC00E94ED117C010097F5
:1028500059F0A801BE010E946B14CE010E9485129E
:10286000C70104C0CE0102C080E090E0CDB7DEB762
:10287000EEE00C940C151F93FC0199278827BC01EE
:10288000E89411911032E9F3193010F01E30C8F3BA
:102890001B3251F01D3249F4689406C00E949A140C
:1028A000610F711D811D911D119110531A30B0F3EC
:1028B0003EF490958095709561957F4F8F4F9F4F17
:1028C0001F910895FB01DC0102C005900D9241505B
:1028D0005040D8F70895FB01DC0102C001900D9231
:1028E00041505040D8F70895FB01DC018D910190D3
:1028F00080190110D9F3990B0895FB01DC010190B7
:102900000D920020E1F708954532510520F4423040
:1029100010F00C948F14FB011082CB010895BB279B
:102920004A3031F4992322F4BDE2909581959F4F6E
:102930000C94BB14592F482F372F262F660F771F63
:10294000881F991F660F771F881F991F620F731FBB
:10295000841F951F660F771F881F991F08954532A2
:10296000510520F4423010F00C94BA14FB0110828F
:10297000CB010895BB27FB015527AA27880F991F74
:10298000AA1FA41710F0A41B83955051B9F7A05D9E
:10299000AA3308F0A95DA193009779F7B111B1931B
:1029A0001192CB010C94D414DC01FC01672F7191BE
:1029B0007723E1F7329704C07C916D937083629125
:1029C000AE17BF07C8F30895B7FF0C94CD110E944E
:1029D000CD11821B930B08952F923F924F925F92DD
:1029E0006F927F928F929F92AF92BF92CF92DF921F
:1029F000EF92FF920F931F93CF93DF93CDB7DEB784
:102A0000CA1BDB0B0FB6F894DEBF0FBECDBF099417
:102A10002A88398848885F846E847D848C849B846E
:102A2000AA84B984C884DF80EE80FD800C811B817C
:102A3000AA81B981CE0FD11D0FB6F894DEBF0FBEAB
:102A4000CDBFED01089510E0C2E8D0E004C0FE0162
:102A50000E94DA112296C438D107C9F7F894FFCF43
:102A60000000740780000100000001002E2B2B2BBA
:102A70002B2B2B2B2B2B2B2B2B2B2B2B2B2B2B2BA6
:102A80002B2B2B2B2B2B2B2B2B2B2B2B2B2B2B2B96
:102A90002B2B2B2B2B2B2B2B2B2B2B2B2B2B2B2B86
:102AA0002B2B2B2B2B2B2B2B2B2B2B2B2B2B2B2B76
:102AB0002B2B2B2B2B2B2B2B2B2B2B2B2B2B2B2B66
:102AC0002B2B2B2B2B2B2B2B2B2B2B2B2B2B2B2B56
:102AD0002B2B2B2B2B2B2B2B2B2B2B2B2B2B2B2B46
:102AE0002B2B2B2B2B2B2B2B2B2B2B2B2B2B2B2B36
:102AF0002B2B2B2B2B2B2B2B2B2B2B2B2B2B2B2B26
:102B00002B2B2B2B2B2B2B2B2B2B2B2B2B2B2B2B15
:102B10002B2B2B2B2B2B2B2B2B2B2B2B2B2B2B2B05
:102B20002B2B2B2B2B2B2B2B2B2B2B2B2B2B2B2BF5
:102B30002B2B2B2B2B2B2B2B2B2B2B2B2B2B2B2BE5
:102B40002B2B2B2B2B2B2B2B2B2B2B2B2B0E000E3A
:102B500000014E616E6F2420492057414E5420548D
:102B60004F20504C415920412047414D4520210ADA
:102B7000004E616E6F24206E6F772C20796F752068
:102B800061726520696E2028302C3029206F662004
:102B9000616E20756E6B6E6F776E206D617A652E3B
:102BA0000A004E616E6F2420796F75206D75737405
:102BB000207265616368202831342C20313429204B
:102BC0006F662074686973206D617A652E0A004E05
:102BD000616E6F2420796F75206861766520746559
:102BE0006E207365636F6E647320746F207265610D
:102BF00063682069742E0A004E616E6F2420746829
:102C00006520274F272069732077686572652079D2
:102C10006F75206172652E0A004E616E6F242074FC
:102C2000686520272E27206D61726B2069732072E2
:102C30006F61642E0A004E616E6F242074686520F7
:102C4000272B27206D61726B2069732077616C6C74
:102C50002E0A004E616E6F242073656E64205B77D0
:102C60005D20746F206D6F76652075700A004E616F
:102C70006E6F242073656E64205B645D20746F202A
:102C80006D6F76652072696768740A004E616E6FB9
:102C9000242073656E64205B735D20746F206D6FFC
:102CA000766520646F776E0A004E616E6F24207324
:102CB000656E64205B615D20746F206D6F766520AA
:102CC0006C6566740A004E616E6F242073686F77BE
:102CD000206D61700A00202A2000202B2000202D6A
:102CE00020004E616E6F242000203D203F0A0048E6
:102CF0004954434F4E2032303135204E414E4F2003
:102D000047414D450A005573657224206D79206155
:102D10006E737765722069732000623334376261A5
:102D200065326266636431656636373961613331B5
:102D30003737643031376630343265353264636139
:102D400032004E616E6F24206B65792069732034E8
:102D50003537453141323935423944314334380A07
:102D6000004E616E6F242077726F6E6720616E7304
:102D70007765720A004E616E6F242066696E697312
:102D8000680A0055736572242073656E64205B00C9
:102D90005D0A004E616E6F24206B65792069732097
:102DA0003344353243423734364639453643383377
:102DB0000A004E616E6F24206B65792069732032A2
:102DC0003733413943314532443338304234380A9D
:102DD000004E616E6F24205B305D204D6F72736515
:102DE0000A004E616E6F24205B315D204D617A6573
:102DF0000A004E616E6F24205B325D2043616C637C
:102E0000756C61746F720A004E616E6F2420656E7E
:102E100074657220796F75722063686F6963653AB3
:102E20000A0055736572242063686F696365205BCF
:102E3000305D204D6F7273650A00557365722420F2
:102E400063686F696365205B315D204D617A650A57
:102E50000055736572242063686F696365205B3277
:102E60005D2043616C63756C61746F720A004E6122
:102E70006E6F24206163746976617465204D6F7292
:102E800073650A004E616E6F24202E2E2E2E202E8A
:102E90002E202D202D2E2D2E202D2D2D202D2E209F
:102EA0002D2E202E2D202D2E202D2D2D202D2D2E82
:102EB000202E2D202D2D202E202D2D202D2D2D208E
:102EC0002E2D2E202E2E2E202E0A004E616E6F24C7
:102ED00020656E74657220796F757220616E7377EC
:102EE00065723A0A004E616E6F24206163746976E0
:102EF000617465204D617A650A004E616E6F242011
:102F000061637469766174652043616C63756C619B
:102F1000746F720A004E616E6F242074696D656F64
:102F20007574202839207365636F6E6473290A00F5
:102F30004E616E6F242074696D656F757420283141
:102F4000207365636F6E6473290A0000000000DA65
:102F50000B8D0E00000000050D8D0E870CA00C924D
:042F60000CE30C0072
:00000001FF
